:020000040800F2
:10000000801A002061140008093D00084D14000802
:100010004D1400084D1400084D14000800000000A5
:10002000000000000000000000000000951400081F
:100030004D1400080000000035160008A921000832
:10004000AD160008AD160008AD160008AD16000884
:10005000AD160008AD160008AD160008AD16000874
:10006000AD160008AD160008AD160008AD16000864
:10007000AD160008AD160008AD160008AD16000854
:10008000AD160008AD160008AD160008AD16000844
:10009000AD160008AD160008AD160008AD16000834
:1000A000AD160008AD160008AD160008AD16000824
:1000B000AD160008AD160008AD160008AD16000814
:1000C000AD160008AD160008AD160008AD16000804
:1000D000AD160008AD160008AD160008AD160008F4
:1000E000AD160008AD160008AD160008AD160008E4
:1000F000AD160008AD160008AD160008AD160008D4
:10010000AD160008AD160008AD160008AD160008C3
:10011000AD160008AD160008AD160008AD160008B3
:10012000AD160008AD160008AD160008AD160008A3
:10013000AD160008AD160008AD160008AD16000893
:10014000AD160008AD160008AD160008AD16000883
:10015000AD160008AD160008AD160008AD16000873
:10016000AD160008AD160008AD160008AD16000863
:10017000AD160008AD160008AD160008AD16000853
:10018000AD160008AD160008AD160008AD16000843
:10019000AD160008AD160008AD160008AD16000833
:1001A000AD160008AD160008AD160008AD16000823
:1001B0004FF0FF0C1CEAD0521EBF1CEAD15392EA4A
:1001C0000C0F93EA0C0F6FD01A4480EA010C400226
:1001D00018BF5FEA41211ED04FF0006343EA501080
:1001E00043EA5111A0FB01310CF00040B1F5000FC2
:1001F0003EBF490041EAD3715B0040EA010062F171
:100200007F02FD2A1DD8B3F1004F40EBC25008BF5A
:1002100020F00100704790F0000F0CF0004C08BF78
:1002200049024CEA502040EA51207F3AC2BFD2F145
:10023000FF0340EAC250704740F400004FF0000353
:10024000013A5DDC12F1190FDCBF00F0004070478D
:10025000C2F10002410021FA02F1C2F1200200FACB
:1002600002FC5FEA310040F1000053EA4C0308BF92
:1002700020EADC70704792F0000F00F0004C02BFE3
:10028000400010F4000F013AF9D040EA0C0093F05E
:10029000000F01F0004C02BF490011F4000F013BB8
:1002A000F9D041EA0C018FE70CEAD15392EA0C0F26
:1002B00018BF93EA0C0F0AD030F0004C18BF31F091
:1002C000004CD8D180EA010000F00040704790F067
:1002D000000F17BF90F0004F084691F0000F91F00B
:1002E000004F14D092EA0C0F01D142020FD193EAD1
:1002F0000C0F03D14B0218BF084608D180EA010059
:1003000000F0004040F0FE4040F40000704740F034
:10031000FE4040F4400070474FF0FF0C1CEAD05202
:100320001EBF1CEAD15392EA0C0F93EA0C0F69D05E
:10033000A2EB030280EA010C49024FEA402037D0C9
:100340004FF0805343EA111143EA10130CF00040C0
:100350008B4238BF5B0042F17D024FF4000C8B42B0
:1003600024BF5B1A40EA0C00B3EB510F24BFA3EB90
:10037000510340EA5C00B3EB910F24BFA3EB910360
:1003800040EA9C00B3EBD10F24BFA3EBD10340EABA
:10039000DC001B0118BF5FEA1C1CE0D1FD2A3FF600
:1003A00050AF8B4240EBC25008BF20F001007047B5
:1003B0000CF0004C4CEA50207F32C2BFD2F1FF0358
:1003C00040EAC250704740F400004FF00003013A89
:1003D00037E792F0000F00F0004C02BF400010F42D
:1003E000000F013AF9D040EA0C0093F0000F01F041
:1003F000004C02BF490011F4000F013BF9D041EA63
:100400000C0195E70CEAD15392EA0C0F08D1420295
:100410007FF47DAF93EA0C0F7FF470AF084676E768
:1004200093EA0C0F04D14B023FF44CAF08466EE741
:1004300030F0004C18BF31F0004CCAD130F000420F
:100440007FF45CAF31F000437FF43CAF5FE700BF67
:100450004FF0FF3C06E000BF4FF0010C02E000BF90
:100460004FF0010C4DF804CD4FEA40024FEA410332
:100470007FEA226C18BF7FEA236C11D001B052EAE8
:10048000530C18BF90EA010F58BFB2EB030088BFAE
:10049000C81738BF6FEAE17018BF40F0010070471D
:1004A0007FEA226C02D15FEA402C05D17FEA236CFF
:1004B000E4D15FEA412CE1D05DF8040B704700BF46
:1004C000844608466146FFE70FB5FFF7C9FF0028DD
:1004D00048BF10F1000F0FBD4DF808EDFFF7F4FF16
:1004E0000CBF012000205DF808FB00BF4DF808EDAF
:1004F000FFF7EAFF34BF012000205DF808FB00BFD2
:100500004DF808EDFFF7E0FF94BF012000205DF8F3
:1005100008FB00BF4DF808EDFFF7D2FF94BF0120A4
:1005200000205DF808FB00BF4DF808EDFFF7C8FF9D
:1005300034BF012000205DF808FB00BF42000ED24E
:10054000B2F1FE4F0BD34FF09E03B3EB126209D40E
:100550004FEA002343F0004323FA02F070474FF0C4
:100560000000704712F1610F01D1420202D14FF039
:10057000FF3070474FF00000704700BF53B94AB9D1
:10058000002908BF00281CBF4FF0FF314FF0FF309B
:1005900000F00CB8ADF1080C6DE904CE00F008F8DD
:1005A000DDF804E0DDE9022304B07047704700BFC6
:1005B0002DE9F0478C468E46089E1546044619469E
:1005C000002B40F0D080724547D9B2FA82F74FB184
:1005D000C7F120030EFA07FC20FA03F3BD4043EAFB
:1005E0000C0CBC404FEA154EA8B2BCFBFEF8230C25
:1005F0000EFB18CC08FB00F943EA0C43994528D9B7
:10060000EB1808F1FF3204D2994502D9A8F1020291
:100610002B44A3EB0903A4B2B3FBFEFC0EFB1C337B
:100620000CFB00F044EA0344A04214D92C190CF14D
:10063000FF3304D2A04202D9ACF102032C44241AA5
:1006400043EA02401EB1FC40002334607360BDE801
:10065000F0874246DDE76346F1E7002A79D0B2FA37
:1006600082F3002B3FD01946C1F1200302FA01F5B5
:100670002EFA03F20EFA01FE20FA03F343EA0E0308
:100680004FEA154E00FA01F4B2FBFEFCAFB20EFBCE
:100690001C201A0C0CFB07F842EA004290455AD97C
:1006A000AA180CF1FF3004D2904502D9ACF1020037
:1006B0002A44A2EB08029BB2B2FBFEFC0EFB1C22FA
:1006C0000CFB07F743EA02439F4246D9EB180CF1B3
:1006D000FF3204D29F4202D9ACF102022B44DB1B51
:1006E00042EA004202E0AEEB020301224FEA154E5D
:1006F000AFB2B3FBFEFC200C0EFB1C330CFB07F867
:1007000040EA034398452AD9EB180CF1FF3004D294
:10071000984502D9ACF102002B44A3EB0803A4B224
:10072000B3FBFEFC0EFB1C330CFB07F744EA03444F
:10073000A74216D92C190CF1FF3304D2A74202D9D3
:10074000ACF102032C44E41B43EA00400F4611467F
:1007500078E71F2188E76046ABE76246BFE760465F
:10076000DBE76346EFE7734506D916B90021084673
:100770006DE7C6E9000EF9E7B3FA83F787B9734569
:1007800001D3824207D8841A6EEB030301209C46F2
:100790001EB900215BE73846FAE7C6E9004CF8E7E6
:1007A000C7F1200CBB4022FA0CF51D4320FA0CF1D6
:1007B0002EFA0CF30EFA07FE41EA0E014FEA154934
:1007C00000FA07F4B3FBF9F81FFA85FE09FB1830AD
:1007D0000B0C08FB0EFA43EA00439A4502FA07F2B3
:1007E00040D9EB1808F1FF3004D29A4502D9A8F19C
:1007F00002002B44A3EB0A0389B2B3FBF9F809FB0F
:10080000183308FB0EFE41EA03418E452CD96918C6
:1008100008F1FF3304D28E4502D9A8F1020329441E
:1008200043EA0040A0FB0298A1EB0E014145CE46F1
:10083000434602D306D14C4504D2B9EB020E68EB15
:1008400005030138002EA4D0B4EB0E0261EB0301C6
:1008500001FA0CFC22FA07F34CEA0303F940C6E95B
:10086000003196E74046C5E74346D9E738B52C4DF9
:1008700005F108042B7C002B48D02A4801220D21C9
:1008800002F0B1FFBFF35B8F2368BFF35B8F002BD8
:100890003FD0BFF35B8F2068BFF35B8F63302CBF0B
:1008A0000121002164220023FFF768FE03F0DBFD35
:1008B0001C4800220D2102F096FFBFF35B8F2368D6
:1008C000BFF35B8F43B3BFF35B8F2068BFF35B8FD6
:1008D00063302CBF0121002164220023FFF74EFE6C
:1008E00003F0C1FDBFF35B8F0F4B53E8002F0132C4
:1008F00043E800210029F8D1BFF35B8FBFF35B8F82
:100900001968BFF35B8F094802F0BDFF03F02FFDAC
:10091000B0E700200146C9E700200146E0E700BF3C
:10092000D002002024470008D4020020000000204C
:1009300000B51649164889B002F08BFF15491448D6
:1009400002F087FF1449124802F083FF13484FF06A
:100950007E5102F07BFF00F0E3F800220023CDE996
:10096000062300230522CDE90323CDE901330093BB
:100970000B490C4B0C484FF4006201F0F7FF0021CB
:100980004FF47A7003F06FFDF9E700BF100000200C
:10099000180300200C000020C0020020D00200201C
:1009A000800400206D0800089000002070B51B4EE8
:1009B0001B4A1C491C481D4C0025F560357403F08A
:1009C000AAF9174A1A491B4803F0A5F90023E36066
:1009D000194BA361194B2362194BA362194B236373
:1009E000194BA363194B23640D4A1949257404F16B
:1009F000180320462360C4E901556661E46103F0F1
:100A00008AF9144B144A15491C60C1E900231348A4
:100A1000034A1349BDE8704003F07DB91803002074
:100A200044030020DF37000810000020D00200201F
:100A3000E13700080C000020604B0008884B0008DC
:100A4000D84B0008284C0008004C0008B04B0008A8
:100A5000E3370008C80200204C4B0008C002002009
:100A6000E5370008014802F0EDBE00BFD0020020CB
:100A7000014802F0E3BE00BFD00200200146034857
:100A80008368DB690BB101221847704708470008EB
:100A90000A4602480C2102F0F8BE00BF24470008B5
:100AA000F0B403460A461979DB88006813430A4A02
:100AB0000669876834689A4308BF83F44023012598
:100AC0008D4023F48012DB074CBF2C43AC433460D1
:100AD0003B68F0BC184700BF0100100030B48368C9
:100AE0009C6984B1130207D5056901232D688B40E9
:100AF0002B4218BF82F0C062044BA446134030BCA6
:100B000002F0B072604730BC704700BF4000000682
:100B10000A4602480B2102F0B8BE00BF2447000875
:100B200008B520484FF4B011FFF7BAFF1E491F481F
:100B3000FFF7B6FF1C491E48FFF7B2FF1D484FF4F0
:100B4000B011FFF7ADFF1C484FF4B011FFF7A8FF3D
:100B50001A484FF4B011FFF7A3FF19484FF4B01132
:100B6000FFF79EFF082117484FF0B862FFF7B6FF66
:100B7000154A164B536010464FF480739360FFF78D
:100B80007DFF09210F484FF0B862FFF7A7FF104A19
:100B9000104B536010464FF400739360FFF76EFFE5
:100BA00008BD00BF344B0008100001002C4B0008AA
:100BB000244B00081C4B0008144B00080C4B000889
:100BC000044B00080847000838030020650A0008A5
:100BD0002C030020710A000810B5012104460348C7
:100BE00002F063FE0123237310BD00BF3C4B0008DD
:100BF00000210173014802F058BE00BF3C4B0008C1
:100C000038B504460846A1600C49FFF7D1FA002127
:100C10000546FFF775FC38B1BFF35B8F4FF0FF332C
:100C20006360BFF35B8F38BD29460548FFF774FB4F
:100C3000FFF784FCBFF35B8F6060F2E7000048477A
:100C4000C0E1644C0149024802F0B4BFC44D000841
:100C5000D04D00080149024802F0ACBFD34D000856
:100C6000D04D00080149024802F0A4BFE14D000840
:100C7000D04D00080149024802F09CBFEE4D00082B
:100C8000D04D000808B5406800F1200102F0D0FD09
:100C9000BDE808400149024802F08CBF014E00083F
:100CA000D04D000808B540680430FFF795FFBDE857
:100CB00008400249024802F07DBF00BF1E4E0008F6
:100CC000D04D00080149024802F074BF114E0008DF
:100CD000D04D000808B5406800F1180102F0A8FDE9
:100CE000BDE808400149024802F064BF274E0008F1
:100CF000D04D000808B540680430FFF76DFFBDE82F
:100D000008400249024802F055BF00BF384E0008B3
:100D1000D04D00080149024802F04CBF304E000897
:100D2000D04D000808B540680430FFF761FFBDE80A
:100D300008400249024802F03DBF00BF624E000871
:100D4000D04D00080149024802F034BF424E00086D
:100D5000D04D00080149024802F02CBF524E000855
:100D6000D04D00080149024802F024BF6A4E000835
:100D7000D04D000810B5044640680430FFF738FF36
:100D80006368586902F06BFDBDE8104001490248F4
:100D900002F010BF7F4E0008D04D00080149024804
:100DA00002F008BF8B4E0008D04D000801490248F0
:100DB00002F000BFA34E0008D04D000801490248D0
:100DC00002F0F8BEB34E0008D04D000808B54068E8
:100DD0000430FFF70DFFBDE808400249024802F069
:100DE000E9BE00BFC94E0008D04D000801490248C5
:100DF00002F0E0BED34E0008D04D000808B502480E
:100E000002F0D8FE002008BDE44E0008014B1B682C
:100E1000184700BF14000020014B1860704700BF46
:100E20001400002030B5044685B00D461022002184
:100E3000684603F05EFB02238DF802302A46044B1D
:100E400001932146684602F085FA05B030BD00BF27
:100E50000D0E0008034A536823F00203536000207C
:100E6000704700BF002004E008B54168054883686A
:100E70001B6808311BB1984700EAE07008BD6FF0AD
:100E80005700F9E760460008062810B502D900248B
:100E9000204610BD044B53F82040204603F01FFAB3
:100EA0000028F5D1F3E700BFB84C0008134B1A68CF
:100EB00042F4007282B01A601A6842F480621A60CA
:100EC0001A6842F480721A600D4B0E4A1A600E4A7C
:100ED000536843F0010353600C4B9A6D42F080520B
:100EE0009A659B6D0A4A03F080530193019B9368B6
:100EF00043F48043936002B0704700BF002002407B
:100F0000540000200024F400002004E000100240FF
:100F100000700040014B036000207047D44C000873
:100F200080B505460E461746984602F01DF8034662
:100F300000F0CEFBDFF81890044649F80030424636
:100F400030463946A84754F8090000F05DFB00BF61
:100F50000800000008B50348034A0021121A02F0F5
:100F6000CBFE08BD90000020600400200748084A1E
:100F7000084908B5121A02F0C1FE0748074A084995
:100F8000BDE80840121A02F0B9BE00BF0000002000
:100F9000900000202C5400080000002000000020D9
:100FA0002C54000838B505460C4699B1D1E9012307
:100FB0000F48096802F0FEFDD4E90423E1680D48FA
:100FC00002F0F8FDE1690C4802F0F4FDA1690B485C
:100FD00002F0F0FD012D05D1EFF30581084810392D
:100FE00002F0E8FD21462846BDE8384001F042BA4B
:100FF000814F0008B14F0008E14F0008F14F000891
:101000002050000830BFFFF7FDBF00BF2DE9F041C1
:101010000B4EDFF8308006EB0807CC1B0546324646
:101020000949204603F057FAA01942460021083C1E
:1010300003F05FFA2C6707F10800BDE8F08100BFFC
:101040000000000004000000D44A00082DE9F84325
:10105000324D804632488946174602F0ABFDAB6AF6
:10106000DE0622D52F4802F0A5FD1124AB6A1D072C
:1010700003D52D4802F09EFD1224284DAB6A980737
:1010800015D52A4802F096FD6E6BAB6A190642D55B
:101090002748314602F08EFDB9F1000F03D0AB6A4C
:1010A00023F08003AB62132403E01024DEE76FF02B
:1010B00015061A4DAB6ADA0703D51E4802F07AFD11
:1010C0001424AB6A9B0603D51B4802F073FD15245C
:1010D000124B9A6AD50602D49A6A90070AD55B68C1
:1010E000190507D54146304600F044FA10B180F3A7
:1010F00009880224094B9A6A920642BF5A6A22F46E
:1011000000525A629A6A42F0FF029A6200233B70D0
:101110002046BDE8F8836FF01506C4E700ED00E057
:10112000345000084B5000087F50000893500008CE
:10113000AC500008C3500008E350000810B51D4C27
:101140001D4802F037FDA36A990130D51B4802F013
:1011500031FD1E20A36ADA0103D5194802F02AFDE9
:101160001F20144CA36A1B0303D5164802F022FD6E
:101170002120A36A590303D5134802F01BFD222046
:101180000C4CA36A9A0303D5104802F013FD2320E8
:10119000A36ADB0303D50E4802F00CFD2420054AA8
:1011A000936A6FEA03436FEA1343936210BD1D20F5
:1011B000D0E700BF00ED00E0135100082C510008FB
:1011C000405100085B5100087A510008A051000806
:1011D000BB51000870B5244C064624480D4602F069
:1011E000E9FCA36AD90435D5214802F0E3FC1720B5
:1011F000A36A1A0503D51F4802F0DCFC18201A4C1C
:10120000A36A9B050FD51C4802F0D4FCA16BA36A0E
:10121000180407D5194802F0CDFC1EB1A36A23F4C7
:101220000043A3621920104CA36A590503D5144842
:1012300002F0C0FC1A20A36ADA050DD5114802F0AD
:10124000B9FC1B20084A936A43F47F43936200234E
:101250002B7070BD1620CBE7A36A9B04F2D50A4819
:1012600002F0A8FC1C20EDE700ED00E0E7510008CB
:10127000FE5100087F500008105200082A52000852
:10128000405200085C520008E35000082DE9F0418C
:101290005D4B5F688AB00446C7F30806002585F3F6
:1012A0001188BFF36F8F02F07F43B3F17F4F06D1F8
:1012B00002F00C03082B13D1544802F07BFC0025EC
:1012C0002C464FF00008F31E8DF80780092B00F222
:1012D0008C80DFE803F00A80847C8A8A8A8A8A8884
:1012E00010074CBF0C460125EBE74948464E02F07B
:1012F00061FC8DF80780F36A9A0704D5454802F02F
:1013000059FC00232AE0F36A002B01DA4248F6E791
:10131000F36A5B00F5D5414802F04CFC7369A269A1
:1013200043F480737361BFF34F8FBFF36F8F32F855
:10133000023C726922F480727261BFF34F8FBFF377
:101340006F8F03F47F42B2F55F4F27D1DBB2022BE0
:1013500024D12168324802F02DFC23689DF8072033
:10136000CAB902AE04F1200720686168324603C2A0
:101370000834BC421646F7D1099A002D41D0C2F379
:10138000080121B96FEA52226FEA4222099202A9AA
:101390001846FFF707FE0AB0BDE8F0811A4B9A6ABB
:1013A000D2B232B10DF1070201212046FFF74EFE05
:1013B0000FE09A6A12F47F4F05D00DF1070101206A
:1013C000FFF708FF05E09B6AB3F5803F99D3FFF76D
:1013D000B5FE0346C2E70DF107020021E5E70DF176
:1013E00007010020ECE70F4889E70F4B0F49104831
:1013F00017F4F87FA6F1100208BF194602F0DAFBD5
:101400007FE76FF30802C1E700ED00E0A352000898
:10141000CF520008E752000809530008185300088B
:101420003853000855530008755200088A520008C6
:101430007A530008044B5A6942F010025A615A6903
:1014400022F008025A61704700ED00E0EFF30880D7
:10145000EFF3098101B57246FFF718FF01BD00BF28
:101460000A4880F30888102080F3118808484FF458
:101470000461401880F30988EFF3148002210843C7
:1014800080F31488BFF36F8F00F03CF8801A0020BF
:10149000C00C00201EF0040F0CBFEFF30880EFF328
:1014A0000980816911F8021C0229FFD001B572463A
:1014B00002F026FC01BD00BF40B20028A8BF00F129
:1014C000604001F10101B8BF064B4FEA0111ACBF0A
:1014D00000F5614000F00F00C9B2B4BF195480F8A4
:1014E0000013704714ED00E0044B054A23F07F031E
:1014F0009360BFF34F8FBFF36F8F704700000008FA
:1015000000ED00E008B5FFF7EFFF0B4AD2F8883096
:1015100023F47003C2F88830EFF3148323F004033C
:1015200083F31488BFF36F8FFFF714FDFFF71EFDE1
:1015300000F0B0F801F072F800ED00E042F8203C55
:10154000009B42F81C3C0A49019B42F8183C029B54
:1015500042F8143C21F001014FF0807342F8043C42
:1015600042F8081C0023203A02654367704700BF19
:10157000210F0008094A0346906870B113F1160F55
:10158000006E05D0A0F14002934205D3834203D2FE
:10159000814228BF00207047002070472C040020A3
:1015A00008B515460B4A0C4B9060026F1A600E4648
:1015B00000F0A0F82C4686F309880020034B9847DA
:1015C0002046002100220023014C20472F3D000827
:1015D000210F00082C04002080030020014B102262
:1015E0001A61704700ED00E0054B5A699B689A420A
:1015F0001FBF044A536843F080535360704700BFD5
:101600002C04002000ED00E0084B9B6883420BD1C6
:10161000EFF3058343B1064B5A6842F080525A609B
:101620005A6A22F400425A6202F082BE2C04002060
:1016300000ED00E014498A684FF030001044EFF3E9
:10164000098C80E8F01F102080F31288BFF36F8FA1
:101650000E4F4FF000664A698A603E60106F0C4C76
:101660002060506F0023536780F3118804B5104643
:1016700000F040F8BDE8044002F1300090E8F01FAF
:101680008CF30988704700002C04002004ED00E072
:1016900080030020044800231021C21801335C2B72
:1016A00082F80013F9D1704700E100E008B5EFF3CC
:1016B0000583064A103B02EBC30152F83300496828
:1016C0008847BDE80840FFF78FBF00BFB04700085C
:1016D000014800687047000080030020024B034A65
:1016E0000348012100F076B800000220000000202D
:1016F000D44C0008036E054A403B1360044B402164
:10170000C2E901131046012100F06EB884030020E5
:1017100000000B15084AC2F898000B6823F01F035D
:10172000034343F01003C2F89C308B6843F001037D
:10173000C2F8A030704700BF00ED00E02DE9F04393
:10174000DFF8608085B00E461F4604464FF0000962
:10175000B14523DA6068D8B13FB1411E08421BD1C0
:101760001F2819D92368194216D12368019302F062
:10177000F2FAA36803430393D8F89050C5F3072502
:10178000D0B2013DA84207D801A9FFF7C3FF421C10
:1017900009F101090C34DBE76FF01502104605B0C2
:1017A000BDE8F08300ED00E0044B0522C3F894206F
:1017B000BFF34F8FBFF36F8F704700BF00ED00E0A6
:1017C000BFF35F8F024B0022C3F89420704700BF25
:1017D00000ED00E010B5034C01232278FFF7AEFFC7
:1017E000207010BD5804002008B50B4A0023127861
:1017F000FFF7A4FF10F1160F07D0084A0021D2F816
:101800009030C3F30723984200DB08BDC2F898006C
:10181000C2F8A0100130F2E75804002000ED00E00B
:101820002DE9F0435A4B5B4DD3F890302C68C3F34D
:1018300007239C4285B000F2A780FFF7C1FF00207C
:101840000C2684421AD1544EDFF844913470684615
:10185000FFF760FB514C524D80460027B84514D12C
:1018600033784B490020D1F89020C2F307229342ED
:10187000C0F28480FFF798FF002045E0696806FB0E
:101880000011FFF747FF0130DBE7009800EB07117D
:101890004FEA071CCB682340B3F5000F4DD00AD8A0
:1018A000B3F5001F33D0B3F5800F3BD0B3F5801FE5
:1018B00013D00137D2E7B3F1007F47D0B3F1805F97
:1018C0004DD0B3F1807FF4D150F80C3088684A686D
:1018D00002F041FA40F0887009E050F80C30886856
:1018E0004A6802F038FA40F0885040F43020CDE9E0
:1018F00001230390D9F890303078C3F30723013BDC
:10190000984234D96FF0150005B0BDE8F08350F867
:101910000C3088684A6802F01EFA40F0885040F4A3
:101920000020E4E750F80C3088684A6802F013FAA7
:1019300040F0C06040F40030D9E750F80C308868BF
:101940004A6802F008FA40F08270D0E750F80C3094
:1019500088684A6802F0FFF940F48020C7E750F831
:101960000C3088684A6802F0F6F92843BFE701A9FD
:10197000FFF7D0FE3378013333709AE7C1F898301F
:10198000C1F8A00001336EE74FF0FF30BCE700BFA5
:1019900000ED00E0E04C0008580400200000F0FFDB
:1019A0000000021108B5024B1B689847002008BDD3
:1019B00090030020034B044A1860937843F002031D
:1019C00093707047900300201800002008B5064966
:1019D000064821F00701C1F1005202F5003202F081
:1019E000A6F8002008BD00BFC71A002094030020FD
:1019F00003484FF0FF324FF0FF3300F075BE00BFD9
:101A000028000020014800F0E1BE00BF28000020AF
:101A100010B50446FFF7ECFF2146034802F031F809
:101A2000BDE81040FFF7EEBF9403002007B5084A59
:101A300092E80300CDE9000106488268126822B1ED
:101A40006946904703B05DF804FB6FF05700F9E773
:101A5000D44A0008604600083F280DD800F01F0255
:101A600001239340054A1F2894BF5269526B934348
:101A70000CBF012000207047002070470004014087
:101A800000F01F0201233F2803FA02F307D81F28A2
:101A9000044A02D85361002070475363FBE76FF09C
:101AA0001500704700040140044B18440023013323
:101AB0008B4200F8012BFADB704700BF6800002062
:101AC0002DE9F041104F054600264FF001086B78D4
:101AD000F4B2A34201D8BDE8F0812B781C44204623
:101AE000FFF7BAFF68B12046FFF7CAFF57F8343056
:101AF0003BB107EBC40204F01F04516808FA04F07C
:101B000098470136E3E700BFA003002038B50B88F3
:101B1000C3F30B030D2B0D46144617D813B96FF002
:101B2000850012E0023B0B2B1BD8DFE803F03506E3
:101B3000353331351A1A1A1D28284FF4FA4020601F
:101B40002B68B3F5805F29D2002038BD03F6B87347
:101B5000C3F30B03182BE2D8144A22FA03F3DB0772
:101B6000DDD5134B1868EAE700F0D0F80623B0FB88
:101B7000F3F0552358430723B0FBF3F0DFE700F001
:101B8000C5F80623B0FBF3F0552358434008D6E7C9
:101B90000848D4E70848D2E70020D0E7C3F313335E
:101BA0000133B0FBF3F02060CEE700BF110111015B
:101BB0005400002000366E01006CDC02F8B54F4F77
:101BC0004F4C00F0C1F8384602F0A9F900F0B2FB22
:101BD000A3684C4AC3F303131578D35C05F01F05C3
:101BE00003F01F0320FA03F647FA05F5AE4202D2CE
:101BF000284600F0D5FB236823F480232360236864
:101C000043F48033236023689903FCD5D4F89430DF
:101C100043F00103C4F89430D4F894309A07FBD50C
:101C2000D4F8983043F00103C4F89830D4F89830D1
:101C30009B07FBD5A36803F00C030C2B18D123687A
:101C4000580506D4236843F480732360236859053C
:101C5000FCD5A36823F0030343F00103A360A3684A
:101C600003F00C03042BFAD1A36823F0F003A36064
:101C7000236823F08073236023689A01FCD4E3680F
:101C800023F4003343F06053E360E36843F48033AC
:101C9000E360E36823F4C003E360E36843F4801384
:101CA000E36000F037F8236843F080732360236813
:101CB0009B01FCD5A36823F0F00343F08003A360ED
:101CC000A36843F00303A360A36803F00C030C2B89
:101CD000FAD1A368AE4223F0F003A36002D32846F2
:101CE00000F05EFB084B1F60A36823F4E063A36071
:101CF000A36823F46053A3600020F8BD80FE210A8E
:101D0000001002401B540008540000200048704797
:101D100000366E010A4AD2F8803023F48073C2F88C
:101D2000803002F5D032074BD1680B4043F4AA4310
:101D300043F05303D360D36843F08073D36070479C
:101D4000007000400C80FFF9064B9A6D42F0805203
:101D500082B09A659B6D03F080530193019B02B0A2
:101D6000704700BF0010024008B5074802F0B7FAFC
:101D700038B10648FFF71EFE0448FFF74DF8002073
:101D800008BD6FF01200FBE778470008911D0008BE
:101D90000A2838B5074D044604D1AB680D215B68AD
:101DA00028469847AB6803485B68E1B298472046ED
:101DB00038BD00BF78470008012912D0022907D09A
:101DC00089B90068094BC01A18BF01200003704789
:101DD0000068064B98420CBF4FF400504FF440503F
:101DE0007047002070474FF400507047008000405B
:101DF00038B51D46094B33F812200023FEF7BEFB11
:101E0000090241EA10616C08000220182A464FF0CE
:101E1000000341F10001FEF7B1FB38BDAC4D0008F5
:101E2000F7B5034605680C4619B96FF0150003B005
:101E3000F0BD406819698368DB68002B43D001AAB4
:101E400098470028F3DB214B9D422ED1019F204E65
:101E500000252346AAB238460021FFF7C9FFA0F5A6
:101E60004070B04203D901350C2DF2D1DDE7174E99
:101E7000F36A23F00F032B43F362164B33F815205C
:101E8000002338461946FEF779FB0023054619461C
:101E900060084FF480772246E5FB0701FEF76EFBF2
:101EA000C0F31300F0600020C1E72B6823F4004367
:101EB0002B60019800EB5400B0FBF4F10F29B4D96A
:101EC00089B2E960EFE76FF05700B0E700800040AB
:101ED000FFFC0F00AC4D00082DE9F84306460A79D7
:101EE0004068336904681F68012A0D4617D0931EA5
:101EF000D3F1000949EB03094FEA89296979FFF712
:101F00005BFF95F80680B8F1020F03460AD0B8F1DE
:101F1000040F01D0002A59D04FF4805005E04FF44F
:101F2000C069EBE7002A4ED00020A2F1030CBCF1FF
:101F3000010F04D86FF085031846BDE8F88312B18D
:101F4000B8F1040FF6D0B3F5805F41D0B3F5405F30
:101F500040D0002B0CBF012303239942EAD149460C
:101F600002F045F88045E5D1EB79C3B1012B33D1BF
:101F70001B4B9C4213D0A3F574439C420FD003F536
:101F800080639C420BD003F580639C4207D003F52D
:101F900080639C4203D003F540539C42CAD123681E
:101FA00023F0010323602946304602F0D6F80346A9
:101FB0000028BFD1226842F00102226095E80300A8
:101FC00087E80300B8E74FF08050BCE71046BAE757
:101FD0000023C2E70223C0E7032BC9D0AAE700BF52
:101FE00000380140F7B54468064660682169836897
:101FF0001B68002B00F093809847002830DB606A54
:1020000001AA002101F08CFF002829DB019B00229E
:102010001979186801F097FF002821DB756833698A
:102020002C681F68236823F001032360A86802F06E
:1020300056F9002876D0D5E902018368DB6803B140
:10204000984754E8003F43F00C0344E80032002A6C
:10205000F7D13946304602F080F818B16FF015001C
:1020600003B0F0BD2B7E1BB1A36843F00803A3604F
:102070006B7E1BB1636843F400436360AB7E1BB1AE
:10208000636843F480336360EB7E1BB1636843F4A1
:10209000003363602B7F83B3244B9C4213D0A3F5A2
:1020A00074439C420FD003F580639C420BD003F530
:1020B00080639C4207D003F580639C4203D003F504
:1020C00040539C42CAD173681A68936843F48043B2
:1020D000936023686A7F23F0787343EA4253236056
:1020E0002368AA7F23F4F81343EA02432360EB7FBB
:1020F0001BB1A36843F40043A36095F820301BB1E3
:10210000236843F000532360236843F001032360F6
:10211000E3699A02FCD5E3695B02FCD5A0E76FF0A6
:1021200057009DE76FF012009AE700BF00380140AA
:102130004FF0E0230D4A9969126818699B690029DC
:1021400008BF1146002B08BF134610F4803F084813
:1021500001D1994205D20168114401604FF0E0219C
:10216000096900681044C01A704700BF28040020A5
:1021700020040020094B102283F82320084B44F24E
:1021800068221A60074B002018604FF0E02344F2E9
:1021900067225A61072298611A61704700ED00E0DA
:1021A0002804002020040020684620F007018D4606
:1021B000F1B502F074F80446FFF7BAFF124A13486B
:1021C000D2E9005103685B19114D41F10001C2E9E8
:1021D0000031D5E9006144F26822002707609B1BAB
:1021E000B3FBF2F002FB00F39B1941F10001C5E9DA
:1021F0000031084B21461F6001F02CF8FFF7F4F97D
:10220000BDE8F140854670471801002020040020F9
:1022100010010020240400202DE9F041344E8046B6
:1022200069B1B0F1FF3F0AD14FF0E022136923F00A
:10223000010313614FF07F433360BDE8F081FFF786
:1022400077FF2C492C4A35684FF0E0239C69D1E98F
:102250000037C31847F100070020B8F1FF3FC1E97C
:102260000037106025D02548D0E90020B3EB020CE0
:1022700067EB0007002F37DB214B1B6844F2682E09
:1022800013EB08034FEAE87040F10000A3FB0E32A5
:102290000EFB0022B3EB0C0340F2274062EB070277
:1022A000834272F100001FDBB3F1807F72F1000204
:1022B00001DB6FF07F434FF0E0223360013B966912
:1022C0005361002393610F4B4FF000725A60B44288
:1022D000D1E900023ABF63199B1BA31B1B1842F1F3
:1022E0000002C1E90032A8E740F22643E3E700BF5D
:1022F00028040020180100202004002010010020E4
:102300002404002000ED00E010B5074B1C68074BCB
:102310001B68E41AFFF70CFF44F268232044B0FB6B
:10232000F3F0034B186010BD1801002010010020CD
:1023300024040020174B9A6802F00C02042A23D0D0
:102340009A6802F00C02082A20D09A6802F00C0267
:102350000C2A1DD1D968DA68D868DB6801F003015E
:10236000C3F341630329C2F30312C0F3062003F150
:1023700001030CBF084909495B000132B1FBF2F2CD
:102380005043B0FBF3F07047044870470248704771
:10239000002070470010024000366E010024F40057
:1023A00010B52849284A441E8C421368D2F8802070
:1023B00044D803F4C063B3F5007F2FD1D20522D4F3
:1023C00003F1016303F5332398422FD81F4B984242
:1023D0002ED81F4B98422FD81E4B984294BF0020F6
:1023E00001201D4A136823F00F0303431360136891
:1023F00003F00F03984223D0136803F00F03181A59
:1024000018BF012010BD154B98420FD8144B9842AD
:102410000ED8144B98420FD8134BDEE7B3F5806FFC
:1024200008D1124B984207D8114BD6E70420D8E7C1
:102430000320D6E70020D4E70220D2E70120E1E71D
:102440000020DFE77FFE210A00700040806514064F
:1024500000990D0480CC060200200240000E2707E0
:10246000804A5D050087930380C3C90100366E0171
:10247000001BB70038B5EFF31185102383F31288E2
:10248000BFF36F8F064B9C6801F03CFF85F311880A
:10249000BFF36F8F2046BDE83840FFF7B5B800BFE7
:1024A0002C04002038B50A4B53F82040013053F873
:1024B0002050A54200D838BD606830B1037EDB07EC
:1024C00001D401F0F4FE0834F3E723689847FAE7F3
:1024D000944D000870B52E4B2E4C2F4D86B0012226
:1024E00003201A70FFF7DEFFAC4219D10420FFF77A
:1024F000D9FF2A4C2A4D2646AE4204F1300415D3AA
:1025000000F00EFD254CAC422CD300F01DFDFEF773
:102510000FFA244A938923F00103938106B070BD1A
:1025200054F8043B002BE1D09847DDE754F80C3C0D
:10253000059354F8103C049354F8143C039354F856
:10254000183C029354F81C3C019354F8203C00932F
:1025500054E90A2354E90C0100F088F954F8303C9E
:102560005E65C8E7D4E90A23B3F1FF3F08BFB2F1C3
:10257000FF3F05D052EA0301206803D100F0D2F9F1
:102580003034C0E70849183000F084FDF8E700BF98
:1025900059040020D04A0008D44A0008904A000894
:1025A000904A0008A00100203144000870B50023C3
:1025B00086B00122CDE90423134E144D01930F225E
:1025C000CDE902321249142303FB005506EBC01675
:1025D00004464FF4C07000FB04110E4B00954FF4FD
:1025E000A072304600F042F9337C0B4AEE6023F0D3
:1025F000040333744FF4046304FB033313442C7457
:102600006B6006B070BD00BF200100202C040020CC
:10261000001500200B430008C00C00207FB50020EF
:10262000FFF740FF284B83F30888284C636943F485
:10263000007363610025F02384F82230E577257666
:102640006576A57684F82050636A43F4E0236362DC
:10265000FEF7F0FEFEF7C2FF4FF0FF33A362E36226
:10266000FFF7DEF8FFF73AF819481A4C00F04EF978
:10267000FEF71CFC0120FFF715FF0220FFF712FFF9
:1026800000F046FC144B15495C61154B0593012382
:102690004FF48062CDE90353CDE90155114B00950C
:1026A000204600F0E3F8237C064623F0040320468E
:1026B000237401F096FE2846FFF778FF094A314659
:1026C0002046FEF76DFF00BF0015002000ED00E082
:1026D00020020020A00100202C04002080160020F1
:1026E000F9530008D52400082DE9F34104461746A4
:1026F0001E46EFF31188102383F31288BFF36F8F08
:10270000304BC2689B6872B18068984217D057EA14
:10271000060216D188F31188BFF36F8F6FF00F0098
:1027200002B0BDE8F08193F90E1021610132C4E9D5
:10273000023288F31188BFF36F8F0020F0E7216920
:10274000F3E793F90E1090F90E30994230DA99427E
:10275000A8BF194601F0E4FD0546CDE900761A4808
:102760002246414600F0F4FA0028E6D0EFF3118645
:10277000102383F31288BFF36F8FA068D0B1236852
:1027800021699C420AD04BB193F90E309942A8BFFF
:1027900019466FF07F039942B8BF194601F0C0FD9A
:1027A00040B10948314601F05BFE6FF00A00B7E71F
:1027B0000025D2E7002DF4D186F31188BFF36F8F87
:1027C000F3E700BF2C0400205A040020F8B583680A
:1027D0000546002B3FD0234A926893423ED1C368FE
:1027E000012B03D9013BC3600020F8BDEFF3118733
:1027F000102383F31288BFF36F8F0169806801F0A3
:102800008FFD2C68A54207D10023C5E9023387F369
:102810001188BFF36F8FE7E7002CF5D0D4E90032C1
:1028200013605A60237C002623F002032374C4E95A
:102830000066A66004F1180000F0C4FCAC6094F9D6
:102840000E302B612046A66701F0CBFD06483946C5
:1028500001F006FEC8E76FF01500C6E74FF0FF3045
:10286000C3E700BF2C0400205A0400202DE9F043E8
:10287000073285B01F4622F0070200F15803C0E975
:1028800016337F32109B838100250E4622F03F02D3
:102890000F9981730423C0E90655044685600374CB
:1028A000C573002100203F2AC4E90A0106F140094E
:1028B000A2F1400805D885F31188BFF36F8F184641
:1028C00002DFB51829462046FEF7A0FB07300E9B15
:1028D00020F00700A066C4E9189802930D9B0193AD
:1028E0002D1A0C9B00932A463B4631462046FEF7A4
:1028F00025FE00236365044B9B6803B1DB6EE36632
:10290000284605B0BDE8F0832C04002001230374A1
:1029100083810023C0E91833C366014B9860704778
:102920002C04002038B50446EFF31185102383F3FF
:102930001288BFF36F8F037C5B070FD5183000F050
:1029400041FC237C23F004032046237401F058FD4E
:1029500029460548BDE8384001F082BD85F311885D
:10296000BFF36F8F38BD00BF5B040020F0B587B0A8
:1029700000250595109D04950F9D03950E9D0295CC
:10298000DDE912760D9D01950C9D00950446FFF73B
:102990006DFFB6F1FF3F08BFB7F1FF3F05D056EA24
:1029A000070305D12046FFF7BDFF204607B0F0BD65
:1029B0003A46334604F11800014900F06BFBF4E796
:1029C00031440008094A93686FF00A019967084981
:1029D00058674B6843F080534B60002383F31188A2
:1029E000BFF36F8F9368986F704700BF2C0400206F
:1029F00000ED00E038B590F91020037C002A014674
:102A000004DA03F07F03037401F0B3FC0D4D2A4692
:102A1000AB6852F8184F944200D004B9EC688B426E
:102A200007D01A7CD20604D1DA897F2A01D9A2699B
:102A30002AB1A34202D0204600F0CCFA23466B61B3
:102A400038BD00BF2C04002070B590F91020037C25
:102A5000002A2FDBD9062DD11A4C63F07F032246C2
:102A6000037452F8183FE169934207D1C0E900218D
:102A70000860E0610FE09942F8D01B68002BF5D0A8
:102A800093F90E6090F90E50AE42F4DD5968C0E93A
:102A9000003108605860A569954200D005B9E56825
:102AA000A3681A7CD20606D1DA897F2A03D9AA69DB
:102AB0000AB9636170BDAB4202D0284600F08AFAC1
:102AC0006561F7E72C040020034648B9EFF305825F
:102AD00032B9064A51699268914201D0FFF772BF3C
:102AE00083F31188BFF36F8F704700BF2C04002061
:102AF00038B5184CA168E0690B68814214BF1A46CA
:102B0000002249680B605960A368E1692AB9124A3A
:102B1000C3E900210B60E3610AE092F90E5093F9DA
:102B20000E00854212DD5168C3E900210B6053603D
:102B3000A569094B9D4200D005B9E568A3689D428F
:102B400002D0284600F046FA656138BD8A42DED0E0
:102B50001268DBE72C040020440400202DE9F04734
:102B6000002A027C0CBF4FF010094FF0080919EA47
:102B7000020F04460E460F4628D149EA0203D20945
:102B800046D10374B9F1080F48D04FF00008DFF8C0
:102B9000F0A0534653F8185F9D4200D00DB9DAF803
:102BA0000C50DAF80830AB4202D0284600F012FA96
:102BB000B9F1100FCAF8145008D0204601F0B4F84B
:102BC000B8F1000F02D02F48FFF7A0FE2C4B9B68F6
:102BD000A3424FD1EFF30583002B4BD1A289D2073B
:102BE00011D586F31188BFF36F8F83F31188BFF37C
:102BF0006F8F0423184602DFEFF31187102383F34E
:102C00001288BFF36F8F3846BDE8F047FFF7DABE92
:102C100003F07F03037401F0ACFBB3E7A36813B1C7
:102C2000204601F0AEFB04F1180000F0CBFAA56DD0
:102C300004F15808A84511D04FF0000A75B1284694
:102C400001F09FFB05F1180000F0BCFAC5F878A070
:102C50002846FFF7F9FEA56DA845EFD1084B9B6804
:102C60009C4292D1EFF30588B8F1000818BF4FF0ED
:102C700001088CE786F31188BFF36F8FBDE8F087FA
:102C80002C0400202002002070B50F4D2B46064674
:102C900053F8184F9C4200D004B9EC68AB681A7C1A
:102CA000D20604D1DA897F2A01D9A2692AB1A342C6
:102CB00002D0204600F08EF923466B613046BDE815
:102CC0007040FFF701BF00BF2C04002070B5EFF388
:102CD0001186102383F31288BFF36F8F1A4CA168FB
:102CE000E0690B68814214BF1A46002249680B60F4
:102CF0005960A368E1692AB9144AC3E900210B604D
:102D0000E3610AE092F90E5093F90E00854216DD58
:102D10005168C3E900210B605360A5690B4B9D42CC
:102D200000D005B9E568A3689D4202D0284600F0AE
:102D300051F965613046BDE87040FFF743BE8A42F5
:102D4000DAD01268D7E700BF2C040020440400202A
:102D5000F8B5124B0C461146114A98681060DDE92F
:102D60000676EFF31182102282F31288BFF36F8F81
:102D70009D68284601F00FFBB6F1FF3F08BFB7F191
:102D8000FF3F06D007493A46334605F1180000F0E8
:102D900081F92046BDE8F840FFF714BE2C0400205E
:102DA0004C04002031440008F8B50446EFF31187C5
:102DB000102383F31288BFF36F8F037C03F01F028D
:102DC000002A0CBF0126002649B235D103F07F034B
:102DD000037401F0CEFA294D037C817363F07F0305
:102DE0002A46037452F8183FE869934207D1C4E9B0
:102DF00000200460EC610DE09842F8D01B68002BC5
:102E0000F5D093F90EC08C45F6DD5968C4E9003160
:102E10000C605C60AC69944200D004B9EC68AB68AB
:102E20009C4202D0204600F0D5F86C6187F31188EF
:102E3000BFF36F8F3046F8BD9B071CD5856801F046
:102E400098FA81732B689D4209D16B68C4E90053DD
:102E50001C606C60EAE76A689A42F6D01B68002B37
:102E6000F3D093F90E208A42F5DD5A68C4E90032A6
:102E700014605C60DAE78173D8E700BF2C0400209F
:102E8000F8B550EA010306460C4603D101F06FFA8B
:102E90000020F8BDEFF31187102383F31288BFF3EE
:102EA0006F8F174D174BA868186001F0ABFAA86830
:102EB000154932462346183000F0ECF8AB681A7C0E
:102EC0005F6742F004021A746FF00A029A670F4AB1
:102ED000536843F0805353600446002383F3118802
:102EE000BFF36F8FAA68D2E90A12B2F1004F08BF90
:102EF0009942CDD101F0E7FA201A20EAE070C8E744
:102F00002C0400204C0400203144000800ED00E0B7
:102F1000024B03F11802C3E9062270472C0400207B
:102F2000EFF31181102383F31288BFF36F8F054BEA
:102F30009A68D37B013BD37381F31188BFF36F8F02
:102F4000704700BF2C040020EFF31180102383F39F
:102F50001288BFF36F8F034B9A68D37B0133D3730F
:102F6000FFF792BE2C040020014B9868704700BF09
:102F70002C040020027C12F01F02034610D10A49E3
:102F800088420DD00949086868B1D9897F2909D8D4
:102F900093F90E20064B1B689A42B8BF0020704779
:102FA0000020704710467047200100205800002084
:102FB00050040020044BC01A044BC0105843044B6B
:102FC00001221A54704700BFA0020020ABAAAAAA8F
:102FD0005C040020F8B50C4B0C4D1E7C0C4FFFF729
:102FE000C9FF182303FB06550446284600F0EAF8FB
:102FF00034B1BB5D0749E21AD317284600F04AF8FE
:103000000023BB55F8BD00BF2C040020A002002007
:103010005C040020B52F000870B5EFF31186102373
:1030200083F31288BFF36F8F0F4D104BAC68186895
:10303000A04202D1FFF7CEFF11E000221A602B7CE4
:103040000B4AD35C5BB12046FFF794FF38B1237C79
:10305000DB0604D1FFF74CFD6869A042EAD086F395
:103060001188BFF36F8F70BD2C0400204C0400202A
:103070005C040020024B1868984208BF002070478B
:1030800060000020024B186808B1FFF73DB9704797
:103090005C000020B3F1FF3F08BFB2F1FF3F2DE914
:1030A000F84F0446994615461F4600F0818081601E
:1030B000EFF31188102383F31288BFF36F8FB9F1F8
:1030C000000FDFF8F4A025DBFFF7DCFF3B4B1B68AC
:1030D000003B18BF0123451949EBE0795B19DAE998
:1030E000005749F10002C4E904325D19064642EB7B
:1030F00007074FF00109FFF7BDFFDFF8C4E0DEF876
:1031000004A00346EBB9C4E900EACAF80040CEF8CF
:10311000044028E0DAE900126FF001035B1A4FF077
:10312000FF3161EB02025B1B62EB0902012B72F1C2
:103130000001BCBF01230022C0E904324FF00009A6
:10314000D9E7D3E9041CD4E904208A4270EB0C0BC4
:1031500025DA891A5A686CEB0000C3E90410C4E947
:10316000003214605C60FFF785FF84420FD1134B7F
:103170001B6801330BD1B9F1000F02D1FFF782FFB9
:103180000646304601F088F90021FFF745F888F33C
:103190001188BFF36F8F28463946BDE8F88F521A61
:1031A00060EB0C005345C4E90420ACD01B68A9E7D0
:1031B00000252F46EFE700BFB80200205C0000208A
:1031C00060000020F8B50246EFF31185102383F369
:1031D0001288BFF36F8F016851B3FFF74BFF1C4B91
:1031E0005B689A4208D0D1E90434D2E90476DB194D
:1031F00044EB0604C1E90434D2E90031002400267E
:103200004FF0004790420B605960C2E90044C2E9A8
:10321000046705D0002085F31188BFF36F8FF8BDD8
:10322000FFF730FF01F038F92146FEF7F5FFF1E72F
:10323000D0E90413B3F1004F08BF012904D10020E5
:103240004FF00041C2E904016FF01500E3E700BF51
:10325000600000202DE9F84FDFF8BC902F4CC9F832
:10326000000000232360FFF705FFDFF8B4800D4660
:1032700001264FF00047D9F80020D8E900CE4FEAE8
:10328000E27A50B1D0E904319A427AEB010B1EDAAE
:103290009B1A61EB0A01C0E9043112EB0C024EEB00
:1032A0000A030026C8E9002330464FF0FF332360AD
:1032B000C9F8006001F0F0F83146FEF7ADFF85F384
:1032C0001188BFF36F8FBDE8F84FFFF7A5BE13EB72
:1032D0000C0CA2EB0303C9F80030D0E90032D0F89F
:1032E00008A0136041EB0E015A600023C8E900C139
:1032F000C0E90033C0E9046785F31188BFF36F8F1D
:10330000D047EFF31185102383F31288BFF36F8F3B
:10331000FFF7B0FEAFE700BF540400205C000020C0
:10332000B802002010B5EFF31184102383F3128844
:10333000BFF36F8FFFF7A6FE054A0346D2E90001EF
:10334000181841EBE37184F31188BFF36F8F10BD40
:10335000B80200202DE9F04F8BB0436800938378CA
:103360009C078046924640F1F980002508780028A5
:1033700000F0F68025280AD04B1C01930135414608
:10338000009B98470028C0F2E3800199EEE74E7851
:103390008B1C252E0193F1D00027B9463C460A220A
:1033A0001F2C22D8A6F12003102B20D8DFE803F031
:1033B000141F1F1A1F1F1F0B1F1F1F121F171F1F56
:1033C000090044F00104019B13F8016B0193002EE6
:1033D000E6D13AE044F0020444F00404F3E744F098
:1033E0000804F0E744F01004EDE77F2C24D8A6F1A0
:1033F0003003092B08D860064EBF02FB073702FBDB
:10340000093944F02004DEE72A2E0DD161065AF86E
:10341000043B53D4002BA7BF44F020049946C3F1CA
:10342000000944F02804CEE72E2E05D1630600F1F2
:10343000978044F04004C6E76C2E2ED028D8682E22
:1034400032D06A2E37D04C2E35D0002F46F02003D4
:10345000B8BF24F04004A3F16502BCBFA4B20027AA
:10346000022A01D9612B2BD10AF1070A2AF0070A97
:103470009C4E0AF1080A0727210760D506EB070BC7
:1034800034465C455DD1AE1BA219A9EB070959E191
:10349000742E98D07A2E96D0D7E7260648BF44F4EB
:1034A000007444F080048EE7E00548BF44F40074E3
:1034B00044F4807487E744F4207484E71F4682E76D
:1034C000A6F16302122A00F2D880DFE812F013009E
:1034D0004D00D600D600D600D6004D00D600D6004E
:1034E000D600D600D600E800D100D600D6001A00DB
:1034F000D600A0005AF8043B8DF81030012704AE26
:10350000BAE75AF8046B784B002E08BF1E4614F039
:10351000400F14BF39464FF0FF31304600F0F1FF45
:103520000746A9E7009B41462020984700280FDB6B
:10353000013CA742F6D34D442D1BA1469EE74C46C5
:10354000F7E714F8010B009B41469847002898DAEA
:1035500098F8023043F0040388F802304FF0FF354A
:1035600028460BB0BDE8F08F220630D5A3052AD53A
:103570000AF1070A2AF007039A4659685AF8080B15
:1035800024F0100B00291FFA8BFB2FDA404261EB6D
:1035900041014BF4806B04AC0A23224600F0BDFFCE
:1035A0001BF0400FA0EB040200F08E802BF0010412
:1035B0009742A4B240F38F80002E40F08E802BF013
:1035C0001104A4B21DE05AF8040BC117D8E7E005B6
:1035D0005AF8041B01D40846F7E7A2054BBF48B2CE
:1035E00008B241F3C01141F3C031C9E750EA010309
:1035F000D1D16306CFD5002FCDD124F01104A4B2D0
:103600003A463B4640F206410C4262D124E024F0A7
:103610001004A4B20A2314F0800243D014F4007101
:103620001FBF0AF1070A2AF007029246516814BF29
:103630005AF8080B5AF8040B50EA01023ED124F064
:10364000160B62061FFA8BFB3CD5002F3AD124F0F3
:103650001704A4B23A463B4621075AD4E10705D5E0
:10366000994572DDA9EB03039F184B469B464AE040
:1036700044F0100410237826CDE7782B04D1C6F14E
:10368000780343F01003C6E7009B41462520984786
:103690000028FFF65DAF02354146304670E608234C
:1036A0000026B8E714F480715AF8040BC4D014F45F
:1036B00000711ABFC0B2114680B2BDE724F0060403
:1036C0001FFA84FB04AC68E713465C46E10699D513
:1036D0002EB90133C0E71346F8E73B46F6E702335D
:1036E000BAE700BF05540008FE530008CDE90232D6
:1036F0004146009B202098470028FFF629AFDDE9CE
:1037000002320BF1010BD945F0DCEB1A03EB0B0590
:103710005B46E10627D5CDE902324146009B3020C9
:1037200098470028FFF614AFDDE902327EB9013573
:103730002F44791B8A4229DB144604AE9CBB2A44E1
:10374000A9EB03091546914442E017468EE7CDE9FF
:103750000232023541463046009B98470028DDE999
:103760000232E5DAF4E640F206410C42E0D014F011
:10377000020F14BF2B20202014F4806FCDE90232F9
:1037800005F10105414618BF2D20E5E7CDE90232DC
:103790004146009B302098470028DDE9023205F1C0
:1037A0000105C6DAD4E6013CCDE90232305D009B6A
:1037B000414698470028DDE90232BFDAC8E6009B9F
:1037C000414620209847002805F10105FFF6C0AECC
:1037D000A9EB0503002BF2DCD7E500BF704770476B
:1037E000704770477047012303FA01F103691B68B2
:1037F000194218BF82F0010212B18368DB681847D2
:1038000083681B69FBE710B50421044600F05FFEE6
:10381000204610BD10B50421044600F058FE204695
:1038200010BD10B50821044600F051FE204610BD21
:1038300001604860006803689B6818470068036877
:103840009B69184700680368DB6818470430FDF778
:10385000D7B9838940F8231001338381704738B585
:1038600004460025A289ABB29A4203D8E38901330A
:10387000E38138BDABB2217C54F8230003689B6818
:1038800098470135EEE701607047012303FA01F123
:1038900003691B68194218BF82F0010212B18368E4
:1038A000DB68184783681B69FBE703460A46006824
:1038B0001979012303FA01F103691B68194218BF42
:1038C00082F0010212B18368DB68184783681B69C4
:1038D000FBE70029FFD07047704710B50821044668
:1038E00000F0F5FD204610BD7047406800F1400132
:1038F000FFF79EBF406800F13801FFF799BF4068AD
:103900000430FDF775B910B50821044600F0DFFD5D
:10391000204610BD7047406800F11801FFF788BFCE
:10392000406800F12801FFF783BF406800F13801CB
:10393000FFF77EBF406800F13001FFF779BF10B597
:103940000821044600F0C3FD204610BD70474068C2
:1039500000F14001FFF76CBF406800F11801FFF76C
:1039600067BF10B50821044600F0B1FD204610BD28
:103970007047406800F11801FFF75ABF10B50821E1
:10398000044600F0A4FD204610BD7047406800F1D9
:103990002001FFF74DBF10B50821044600F097FD48
:1039A000204610BD0020704700EBC1004088400851
:1039B0007047F8B50346FFF7F7FFB0FA80F0C0F1A3
:1039C0001F0003EB800CCA00DCF81060171D0C46CA
:1039D00006328DB256B9012101FA00F0D9680143CF
:1039E000D960CCF81040DD539D52F8BDF100043190
:1039F000585AD85303EBC0009E52C5805D52F4E77D
:103A000010B500EBC104E388994202F104010AD128
:103A1000012303FA02F2C36823EA0203C36000230E
:103A200040F8213010BDA28840F8213000EBC201DF
:103A300000EBC300CB808280F4E708B50346FFF7B4
:103A4000B3FFB0FA80F2C2F11F021846BDE8084089
:103A5000FFF7D6BF38B50446FFF7A6FF0D4603466D
:103A600011462046FFF7A0FF03449BB204EBC505B7
:103A70005A006A802046FFF797FF014424F831304E
:103A800038BDF8B5002951D004680D1F2D1BEE0874
:103A900025F007056219538813F0010306D183F35B
:103AA0001188BFF36F8F0423184602DF314620468A
:103AB000FFF77AFF304434F83030C01A864207D01E
:103AC000002383F31188BFF36F8F0423184602DFAE
:103AD000538823F00103538031462046FFF764FFEB
:103AE000371804EBC7035B88DA0708D43946204649
:103AF000FFF7A3FF3A4631462046FFF7ABFF655B71
:103B0000751B04EBC5035B88DB0709D429462046F7
:103B1000FFF793FF324629462046FFF79BFF2E46CC
:103B200031462046BDE8F840FFF743BFF8BD043AF0
:103B30002DE9F843CC1D114424F0070421F00706B9
:103B4000A6EB04084FEAD807B7FA87F2C2F12405BA
:103B5000AD004FF000090735C2F12002ED08046006
:103B60004946A760C4F80C90920004F1100000F0E0
:103B7000C0FCAAB2530043F0010363807B1B9BB2DD
:103B800004EBC5015800A4F80090488024F83520C3
:103B9000A6F8029024F8083004EBC70329465A8897
:103BA00042F001025A802046BDE8F843FFF701BF0A
:103BB000002070470FB407B504A951F8040B019118
:103BC000FDF730F903B05DF804EB04B070477047BF
:103BD000F0B5406802F4C0450468B5F5804F4FF079
:103BE000010000FA01F074D10729C2F343255AD825
:103BF00090FAA0F3B3FA83F3266A9B000F2707FA23
:103C000003F326EA030690FAA0F3B3FA83F39B00CA
:103C100005FA03F3334323626568C2F3C0338B4074
:103C200025EA00010B43636090FAA0F1B1FA81F13B
:103C3000A5680326490006FA01F125EA010590FA74
:103C4000A0F1B1FA81F1C2F3014349008B402B434B
:103C5000A36090FAA0F1B1FA81F1E568490006FA93
:103C600001F125EA010590FAA0F1B1FA81F1C2F360
:103C7000814349008B402B43E36090FAA0F3B3FAF1
:103C800083F3216890FAA0F05B00B0FA80F006FAA6
:103C900003F34000C2F3413221EA030382401A4396
:103CA00022600020F0BD030A93FAA3F6B6FA86F666
:103CB000676A93FAA3F3B6004FF00F0CB3FA83F3DD
:103CC0000CFA06F69B0027EA06069D40354365621E
:103CD000A2E7B5F5005FA7D16668C2F3C03505FA63
:103CE00001F126EA000529436160002B9CD0D30234
:103CF0004CBFA061A06297E700F0FBBB00F0EBBBFC
:103D000001460068FDF74EB908B5FDF77BF9BDE83F
:103D10000840FDF769BC0B4601461846FFF742BE56
:103D200000210120FDF73EB96FF08500704761B6B4
:103D300062B680F31188BFF36F8F704772B60023AD
:103D400083F31188BFF36F8FBFF34F8F30BF62B61D
:103D5000BFF36F8F7047202809D9B0F1004F08D802
:103D60000138B0FA80F0C0F11F0040007047082011
:103D700070473E20704708B5FDF714FE002008BDCF
:103D800008B5062201210020FDF78EFE0022114613
:103D90000620FDF791FB012108460722FDF784FE6E
:103DA000002211460720FDF787FB0822012102208F
:103DB000FDF77AFE002211460820FDF77DFB09225F
:103DC00001210320FDF770FE002211460920FDF7B6
:103DD00073FB0A2201210420FDF766FE0022114632
:103DE0000A20FDF769FB052108461722FDF75CFE56
:103DF000002211461720FDF75FFB282206210A202A
:103E0000FDF752FE002211462820FDF755FB002049
:103E100008BD0B88C3F30B0303F6B872C2F30B02A1
:103E2000182A82B014D803F1804303F5043348689C
:103E30001A6802431A600B88C3F30B0303F1804333
:103E400003F5043300201B680193019B02B0704707
:103E50006FF08500FAE70B88C3F30B0303F6B87223
:103E6000C2F30B02182A9FBF03F1804303F504330A
:103E700049681A689DBF8A4300201A606FF0850068
:103E800070470D2809D843F66A73C34013F0010F39
:103E90000CBF6FF08500002070476FF08500704701
:103EA00070B508884A68C0F30B0094B2C2F30445A9
:103EB000FFF7E7FFA0B9FF2A11D004F18041C2F358
:103EC000415601F5043101360123B3400C68013B32
:103ED000AB40120E24EA0303AA4013430B6070BDEB
:103EE0006FF08500FBE70888C0F30B0008B500F60B
:103EF000B873C3F30B03182B0AD800F1804000F508
:103F000004304B68026893430CBF0220012008BDB7
:103F1000FFF7B7FF00280CBF02200120F7E770472A
:103F200030B5036813600579046804EBC504A34247
:103F300002D36FF0010030BD5C798C4203F10803BD
:103F4000F0D10020F7E7F8B5044600EB8105AC425C
:103F500001D100200FE054F8046B06F01F00C6F3F7
:103F60004317FCF791FF38B1012332463946FFF77A
:103F70002FFE0028EBDAF8BD6FF01200FBE7436874
:103F8000C1F34B101B6801F01F01C05801238B4087
:103F90000340003B18BF012313700020704710B589
:103FA0004368C1F34B101A6801F01F0184580123C4
:103FB0008B4023438350002010BD10B54368C1F3EC
:103FC0004B14186801F01F01235801228A4023EA8C
:103FD00002032350002010BD38B504460D46FFF7FC
:103FE000DEFF29462046FFF7E8FF002038BDB0F588
:103FF000805F07D0B0F1805F09D100290CBF02209B
:104000000120704700290CBF0420032070470029BD
:104010000CBF03200220704743681B68D869DA6927
:10402000C0F3C00002F0010240EA4200DA699207E0
:10403000DA6948BF40F004005107DA6948BF40F030
:104040002000D20542BF4FF4807240F008001A628F
:10405000C10744BF08221A62820744BF01221A62C4
:10406000410744BF02221A62820644BF04221A6238
:10407000704710B543681B681020DA691206FCD53A
:10408000EFF3118280F31288BFF36F8FDC6924068F
:1040900004D482F31188BFF36F8FEEE7996282F345
:1040A0001188BFF36F8F10BD43681B68DA69100772
:1040B00044BF08221A62DA69920643BF5B6A0B703A
:1040C00000204FF0FF30704710B502691268126887
:1040D0000A6042681268126802F4C062B2F5806F2A
:1040E00004460B4633D0A2F5C060424242411A71E9
:1040F00062681268526802F44052B2F5805F28D0BC
:10410000B2F5405F27D0002A0CBF012203225A716A
:10411000626812681068116800F0102001F4C06134
:10412000FFF765FF987162681268926802F4407246
:10413000A2F540714A424A41DA71616809688968AA
:1041400011F4804F18BF0322DA71002010BD022243
:10415000CDE70022DBE70222D9E72DE9F0410A7919
:104160000369D0F804801E68012A04460D4614D065
:10417000A2F1020CDCF1000747EB0C07BF026979E2
:104180004046FDF719FEAB79022B09D0042B31D044
:10419000131E18BF01231B0306E04FF4C067EEE7B0
:1041A000B2FA82F35B091B07EA79D8F80010012AFA
:1041B0000CBF4FF4407C4FF0000CAE421DD10A689A
:1041C00022F0805222F4B0523A431A430A604B68FC
:1041D00023F4405303434B6063681A68936823F4E5
:1041E000407343EA0C03936031686068BDE8F041B6
:1041F000FDF716BE4FF48053D6E7D1F800E00EF479
:10420000C06E77451FBFD1F800E02EF4C06E4EEAB5
:1042100007070F6061680F68796801F440518842B0
:104220001FBF796821F440510143796061680868D3
:10423000016801F010218B421FBF016821F010219D
:104240000B430360636819688B6803F440739C45F3
:104250001FBF8B6823F4407343EA0C038B606368D1
:104260001B68D71E996878427841C1F38031884233
:1042700007D0032A9A680CBF42F4804222F480429D
:104280009A6029683368994207D06068FDF7C8FDD5
:1042900008B92B683360BDE8F0810020FBE7EFF33D
:1042A0001180102383F31288BFF36F8F704710B50E
:1042B000436904463BB90020E268537843F00103A8
:1042C0005370404210BD98470028F4D00028B8BF72
:1042D0004042E368FF28A8BFFF201870ECE740B118
:1042E000C368587810F001001EBF1878B0FA80F04B
:1042F00040097047EFF31183102383F31288BFF353
:104300006F8FFEE708B5FFF7F5FF10B51024EFF348
:10431000118384F31288BFF36F8FFFF70FFDF6E769
:1043200090F90E308B4201D0FEF73EBD0020704761
:1043300038B58589EFF31181102282F31288BFF31B
:104340006F8F037C13F0080404D081F31188BFF34E
:104350006F8F38BD0122FEF701FCEB07F9D584F31E
:104360001188BFF36F8F0423184602DFF1E7FEF7D1
:10437000ADBCD0E9003213605A600023C0E90033BD
:10438000704708B5FFF7F5FF037C23F002030374C1
:104390000023836008BD38B504460D46FEF72AFBAE
:1043A000237C43F002032374D5B1A5602B689D42A2
:1043B00009D16B68C4E900531C606C6010E06A6846
:1043C0009A42F6D01B68002BF3D093F90E1094F9A3
:1043D0000E209142F3DD5A68C4E9003214605C603B
:1043E00038BD10B5EFF31184102383F31288BFF3A7
:1043F0006F8FFEF729FB84F31188BFF36F8F10BD19
:10440000FEF722BBFEF7F6BA08B5037C13F0280FBF
:1044100001460CD183680BB1FFF7B3FF0B7C23F08F
:1044200004030B740846BDE80840FEF70DBB08BD49
:1044300010B5EFF31184102383F31288BFF36F8F4D
:10444000D0E90423B3F1004F08BF012A04D084F35C
:104450001188BFF36F8F10BD1838FFF7D5FFF6E74F
:104460000846FEF731BB38B505460C46FEF708FD99
:10447000B4F1FF3F08BFB5F1FF3F0AD0C1170930C3
:104480004FF00A024FF0000341F10001FCF776F80B
:1044900038BD4FF0FF30FBE708B50246FEF7EAFDF6
:1044A00070B1D0E904319B1A61EBE272B3F1004FB5
:1044B00072F1000104DA002AACBF1846002008BDE2
:1044C0006FF00040FBE708B5FEF72CFF08BD00F0D9
:1044D00000B8FDF79DBA0A44914200F1FF3300D1C4
:1044E000704710B511F8014B03F8014F9142F9D113
:1044F00010BD02440346934200D1704703F8011BEC
:10450000F9E710B5024601448A42134603D01C78ED
:104510000132002CF8D1181A10BDF0B5C3F13707DD
:104520000446FFB203F01F031046082BE6B233D057
:10453000102B3ED06508A40844EA817445EAC17591
:104540002D194FEA910242EB5102290941EA027109
:104550006D1842EB1212290A41EA02616D1842EB12
:104560001222290C41EA02416D1842EB1242AD18A9
:1045700042F10002EC0844EA4274D10804EB8402E0
:10458000A6EB4205EDB2092D0CD90134A5F10A05BF
:1045900041F10001EDB212E0E40844EA417406F092
:1045A0000705C908303554EA010200F8015BBCD1A7
:1045B000F0BD240944EA017406F00F050909092D2C
:0845C00084BFED19EDB2EDE737
:0845C800E8BFFF7F01000000C5
:1045D0000000000060460008550E000800000000C2
:1045E000000000007C4600080000000008470008AA
:1045F00000000000404700080000000024470008B9
:10460000000000005C47000800000000EC460008C5
:1046100000000000D046000800000000B44600087A
:104620000000000098460008813D000800000000DE
:1046300000000000784700080000000094470008D0
:10464000691D00080000000075210008000000003E
:10465000CD19000800000000FD0D0008000000005A
:10466000BB53000800000000A04A0008880000209A
:1046700000000000BD1B000800000000C853000837
:10468000004D0008904A00088A0000200000000049
:1046900000000000000000001F4F0008484C000808
:1046A000000000007800002048030020690E000888
:1046B000000000002D4F0008584C000800000000CA
:1046C0007A00002050030020690E0008000000005E
:1046D0003B4F0008684C0008000000007C000020F0
:1046E00058030020690E000800000000494F000830
:1046F000784C0008000000007E00002060030020CD
:10470000690E000800000000574F0008884C0008A0
:10471000000000008000002068030020690E0008EF
:1047200000000000654F0008984C000800000000E1
:104730008200002070030020690E000800000000C5
:10474000734F0008A84C00080000000084000020FF
:1047500078030020690E0008000000009D53000847
:1047600000000000000000008600002000000000A3
:104770002D1A000800000000D9530008044D00085D
:10478000BC4A00088C0000203C000020E51F000807
:1047900000000000E95300084C4D0008BC4A000826
:1047A0008E00002048000020E51F000800000000E7
:1047B00000000000213D000800000000213D00082D
:1047C00000000000213D000800000000213D00081D
:1047D00000000000213D000800000000213D00080D
:1047E00019540008C11A000817540008C11A00081B
:1047F00015540008C11A000813540008C11A000813
:1048000011540008C11A000800000000213D0008F2
:1048100000000000213D000800000000213D0008CC
:1048200000000000213D000800000000213D0008BC
:1048300000000000213D000800000000213D0008AC
:1048400000000000213D000800000000213D00089C
:1048500000000000213D000800000000213D00088C
:1048600000000000213D00080F540008C11A000894
:1048700000000000213D000800000000213D00086C
:1048800000000000213D000800000000213D00085C
:1048900000000000213D000800000000213D00084C
:1048A00000000000213D000800000000213D00083C
:1048B00000000000213D000800000000213D00082C
:1048C00000000000213D000800000000213D00081C
:1048D00000000000213D000800000000213D00080C
:1048E00000000000213D000800000000213D0008FC
:1048F0000D540008C11A000800000000213D000806
:1049000000000000213D000800000000213D0008DB
:1049100000000000213D000800000000213D0008CB
:1049200000000000213D000800000000213D0008BB
:1049300000000000213D000800000000213D0008AB
:1049400000000000213D000800000000213D00089B
:1049500000000000213D000800000000213D00088B
:1049600000000000213D000800000000213D00087B
:1049700000000000213D000800000000213D00086B
:1049800000000000213D000800000000213D00085B
:1049900000000000213D000800000000213D00084B
:1049A00000000000213D000800000000213D00083B
:1049B00000000000213D000800000000213D00082B
:1049C00000000000213D000800000000213D00081B
:1049D00000000000213D000800000000213D00080B
:1049E00000000000213D000800000000213D0008FB
:1049F00000000000213D000800000000213D0008EB
:104A000000000000213D000800000000213D0008DA
:104A100000000000213D000800000000213D0008CA
:104A200000000000213D000800000000213D0008BA
:104A300000000000213D000800000000213D0008AA
:104A400000000000213D000800000000213D00089A
:104A500000000000213D000800000000213D00088A
:104A600000000000213D000800000000213D00087A
:104A700000000000213D000800000000213D00086A
:104A800000000000213D000800000000213D00085A
:104A90007F3F00089F3F0008BB3F0008D93F000848
:104AA000133E0008573E0008000000000D1B0008E0
:104AB000E73E000800000000A13E0008A9400008F1
:104AC0007340000819400008D91E0008C9400008BA
:044AD000AD09000824
:104AD4006000000001000000000000000000000071
:104AE400DF37000807380008110B00080000000039
:104AF40000000000E137000815380008910A00089A
:104B0400244700080F000000244700080E0000009E
:104B1400244700080D000000244700080C00000092
:104B240008470008090011000847000808001100A0
:104B3400244700080B000000244700080F00000071
:104B44000000000000000000E537000823380008DA
:104B5400D33800080000000000000000D938000825
:104B6400DB380008450C0008850C0008550C0008CB
:104B7400650C0008750C0008650C000800000000B6
:104B840000000000E938000807390008A50C0008F7
:104B9400EB380008D50C0008C50C0008F5380008EF
:104BA400FF3800080000000000000000153900086C
:104BB4003F390008F50C0008150D000817390008E6
:104BC400213900082B39000835390008000000009D
:104BD400000000004D39000863390008250D000865
:104BE4004F39000859390008450D0008550D0008D3
:104BF400650D000800000000000000007139000885
:104C04007D390008750D00089D0D000873390008F2
:104C1400AD0D0008BD0D0008BD0D0008000000002A
:104C2400000000008B39000897390008CD0D0008FA
:104C34008D390008ED0D0008ED0D0008ED0D00089C
:104C4400ED0D000800180048060000004C000000AC
:104C54004000000000140048050000004C00000063
:104C64002000000000100048040000004C00000078
:104C740010000000000C0048030000004C0000007D
:104C84000800000000080048020000004C0000007A
:104C94000400000000040048010000004C00000073
:104CA4000200000000000048000000004C0000006A
:104CB4000100000040470008244700080847000896
:104CC400EC460008D0460008B446000898460008A0
:104CD400000000200000000000000B06020000009D
:104CE400E84C0008000000088E5300082400020667
:104CF400000000209653000820000B110010024011
:104D040000800040604600087C46000880070000E0
:104D14002C4D00080100000000000000000000000D
:104D240000000000344D00085C0000000100000099
:104D34003C4D000801000000444D00080200000042
:104D440040580400605800000038014060460008E4
:104D54007C4600080E080000744D000801000000A5
:104D64000000000000000000000000007C4D00086E
:104D74006000000000400000844D000801000000B5
:104D84008C4D000802000000824E0400A24E000078
:104D9400D0450008D04500084846000850460008A1
:104DA400584600086046000801000200040006009E
:104DB40008000A000C0010002000400080000001E0
:104DC40069646C652073746174650A0025730061FD
:104DD4006C72656164792069646C650A006E6F7435
:104DE40020737461727465640A006F63636C757315
:104DF400696F6E2069676E6F7265640A007374610F
:104E04007274696E67207072696D650A0063616E01
:104E14006E6F74207061757365207072696D696E50
:104E2400670A0073746F707065640A00616C726560
:104E340061647920696E667573696E670A00616CD6
:104E44007265616479207061757365640A006F63CB
:104E5400636C7573696F6E207768696C6520706127
:104E6400757365640A004E6F742061626C6520740A
:104E74006F20646F20746861740A006F63636C75DB
:104E840073696F6E210A007265736F6C7665206FAB
:104E940063636C7573696F6E2066697273740069FD
:104EA4006E206661756C742073746174650A0061A8
:104EB4006C726561647920696E206F63636C7573CD
:104EC400696F6E0A00636F6D706C657465210061B3
:104ED4006C726561647920636F6D706C65746500D4
:104EE4002A2A2A20426F6F74696E67205A65706897
:104EF4007972204F53206275696C642076342E34A5
:104F04002E302D333635312D67653037633863667F
:104F14003464363435202A2A2A0A006770696F40BF
:104F24003438303031383030006770696F4034388D
:104F3400303031343030006770696F40343830308D
:104F440031303030006770696F403438303030634E
:104F54003030006770696F4034383030303830306A
:104F6400006770696F403438303030343030006757
:104F740070696F4034383030303030300072302F48
:104F840061313A2020307825303878202072312F52
:104F940061323A2020307825303878202072322F40
:104FA40061333A20203078253038780A0072332F64
:104FB40061343A2020307825303878207231322F0D
:104FC40069703A2020307825303878207231342FB7
:104FD4006C723A20203078253038780A00207870B6
:104FE40073723A20203078253038780A004661758B
:104FF4006C74696E6720696E737472756374696F1B
:105004006E206164647265737320287231352F7069
:1050140063293A203078253038780A00556E686163
:105024006E646C6564204952516E3A2025640A000E
:105034002A2A2A2A2A204D5055204641554C5420CC
:105044002A2A2A2A2A0A002020537461636B696E73
:1050540067206572726F722028636F6E746578744E
:105064002061726561206D69676874206265206ED5
:105074006F742076616C6964290A002020556E7370
:105084007461636B696E67206572726F720A0020C7
:105094002044617461204163636573732056696FB2
:1050A4006C6174696F6E0A0020204D4D4641522098
:1050B400416464726573733A20307825780A00205D
:1050C40020496E737472756374696F6E20416363F3
:1050D4006573732056696F6C6174696F6E0A002082
:1050E40020466C6F6174696E672D706F696E7420F1
:1050F4006C617A792073746174652070726573656C
:1051040072766174696F6E206572726F720A002A1A
:105114002A2A2A2A205553414745204641554C54B2
:10512400202A2A2A2A2A0A002020446976697369D7
:105134006F6E206279207A65726F0A002020556EA6
:10514400616C69676E6564206D656D6F727920614D
:1051540063636573730A0020204E6F20636F70725F
:105164006F636573736F7220696E737472756374A1
:10517400696F6E730A002020496C6C6567616C204E
:105184006C6F6164206F66204558435F52455455E7
:10519400524E20696E746F2050430A002020496CDF
:1051A4006C6567616C20757365206F662074686533
:1051B40020455053520A002020417474656D707468
:1051C40020746F206578656375746520756E6465F9
:1051D40066696E656420696E737472756374696F51
:1051E4006E0A002A2A2A2A2A20425553204641556B
:1051F4004C54202A2A2A2A2A0A0020205374616344
:105204006B696E67206572726F720A00202050729B
:1052140065636973652064617461206275732065D8
:1052240072726F720A002020424641522041646427
:10523400726573733A20307825780A002020496D0E
:10524400707265636973652064617461206275734B
:10525400206572726F720A002020496E7374727531
:105264006374696F6E20627573206572726F720A5F
:105274000052657365727665642045786365707461
:10528400696F6E20280053707572696F7573206999
:105294006E746572727570742028495251200053DF
:1052A4005053454C20696E20746872656164206DAA
:1052B4006F646520646F6573206E6F7420696E641B
:1052C4006963617465205053500A002A2A2A2A2AE5
:1052D4002048415244204641554C54202A2A2A2A27
:1052E4002A0A002020427573206661756C74206F51
:1052F4006E20766563746F72207461626C652072CF
:105304006561640A002020446562756720657665DE
:105314006E740A0020204661756C742065736361A5
:105324006C6174696F6E20287365652062656C6FAB
:1053340077290A00415243485F4558434550542059
:105344007769746820726561736F6E2025780A0A24
:10535400002A2A2A2A2A204465627567206D6F6E06
:1053640069746F7220657863657074696F6E202A42
:105374002A2A2A2A0A002A2A2A2A2A2025732025A8
:105384006429202A2A2A2A2A0A00464C4153485FC3
:1053940030005352414D5F3000696E74657272750E
:1053A40070742D636F6E74726F6C6C657240343000
:1053B4003031303430300072636340343030323155
:1053C4003030300072657365742D636F6E74726F64
:1053D4006C6C65720073657269616C403430303096
:1053E400383030300073657269616C40343030316C
:1053F40033383030006D61696E00286E756C6C292D
:10540400002A666C6F61742A000A0605050401030C
:105414000102010101000100000000000000000180
:08542400020304060708090059
:10542C000000000000C8000000000040F84A00081E
:10543C00E44A0008B13B000800000000773D00087A
:10544C0000000000000000002800002028000020C0
:10545C0000000000000000000E00000040000020D2
:10546C0000C20100000103004C00002000C201003A
:10547C00000103000024F400C8000000FFFFFFFF40
:10548C006000002060000020FFFFFFFFFFFFFFFF18
:08549C00FFFFFFFFFFFFFFFF10
:1054A40000000000000000000000000000000000F8
:0854B4000000000000000000F0
:0454BC0015E015E002
:04000005080014617A
:00000001FF
